:100000000C942A010C9449010C9449010C94490167
:100010000C9449010C9449010C9449010C94490138
:100020000C9449010C9449010C9449010C94490128
:100030000C9449010C9449010C9449010C94490118
:100040000C9449010C9449010C9449010C94490108
:100050000C9449010C9449010C9449010C944901F8
:100060000C9449010C9449010C9449010C944901E8
:100070000C9449010C9449010C9449010C944901D8
:100080000C9449010C9449010C9449010C94E60824
:100090000C9449010C9449010C9449010C944901B8
:1000A0000C9449010C9449010C9449010C944901A8
:1000B0000C9449010C9449010C9449010C94490198
:1000C0000C9449010C9449010C9449010C94490188
:1000D0000C9449010C9449010C9449010C94490178
:1000E0000C944901072C7AA5BA6CC590DA3B93654C
:1000F000FC8BBC53F810FD3C5692834DBD879D3A56
:10010000B63DCBC9BF5BBE73DA0FC93F6364696E8E
:100110006F7073757858006E616E00696E660000CE
:10012000407A10F35A00A0724E18090010A5D4E8C6
:100130000000E87648170000E40B54020000CA9A59
:100140003B000000E1F505000080969800000040AB
:10015000420F000000A086010000001027000000F0
:1001600000E803000000006400000000000A000036
:100170000000000100000000002C76D888DC674FEA
:100180000823DFC1DFAE59E1B1B796E5E3E453C61A
:100190003AE651997696E8E6C28426EB898C9B6212
:1001A000ED407C6FFCEFBC9C9F40F2BAA56FA5F4BC
:1001B00090055A2AF75C936B6CF9676DC11BFCE0E4
:1001C000E40D47FEF520E6B500D0ED902E03009437
:1001D0003577050080841E080000204E0A000000CC
:1001E000C80C333333330F986E12831141EF8D21D6
:1001F00014893BE65516CFFEE6DB18D1844B381B3D
:10020000F77C1D901DA4BBE424203284725E228101
:1002100000C9F124ECA1E53D274E414E494E495419
:1002200059494E46CDCCCC3D0AD7233C17B7D138DF
:1002300077CC2B329595E6241FB14F0A0000204160
:100240000000C84200401C4620BCBE4CCA1B0E5ACF
:10025000AEC59D7411241FBECFEFD1E2DEBFCDBF6E
:1002600012E0A0E0B2E0E2EFF2E300E00BBF02C078
:1002700007900D92A434B107D9F72AE0A4E4B2E0C4
:1002800001C01D92AD39B207E1F70E94D6090C9466
:1002900077190C9400009FB788E48093B800E9EBCD
:1002A000F0E080818C7F808388B1806388B985E4A9
:1002B0008093BC001092BA009FBF08951092BC00BA
:1002C00094EA9093BC009091BC0097FFFCCF909172
:1002D000B900987F983099F48093BB0084E88093AC
:1002E000BC008091BC0087FFFCCF9091B900987F43
:1002F000983119F081E0903419F480E0089581E09C
:1003000008958093BB0084E88093BC008091BC007A
:1003100087FFFCCF9091B900987F81E0983209F473
:1003200080E0089584EC8093BC008091BC0087FF3E
:10033000FCCF8091BB00089584E88093BC0080913D
:10034000BC0087FFFCCF8091BB000895EF92FF9225
:100350000F931F93CF93DF9300D0CDB7DEB78A0101
:1003600069837A830E945E0169817A8181110DC05F
:100370007B010E0D1F1DE016F10649F0F70181917A
:100380007F010E9481018823B1F381E004C084E9E8
:100390008093BC0080E00F900F90DF91CF911F9170
:1003A0000F91FF90EF900895EF92FF920F931F939C
:1003B000CF93DF93EB017A0181600E945E0181118E
:1003C0001AC08E0181E0E81AF108C8018C1B9D0B50
:1003D0008E159F0530F40E949201F80181938F01E0
:1003E000F4CFCE0DDF1D0E949C01888384E98093A9
:1003F000BC0080E001C081E0DF91CF911F910F919F
:10040000FF90EF900895CF92DF92EF92FF920F93BB
:100410001F93CF93DF931F92CDB7DEB78A01790187
:1004200069830E945E016981882311F081E015C013
:10043000862F0E94810167010E0D1F1DC016D10677
:1004400041F0F60181916F010E9481018823B1F38F
:10045000EDCF84E98093BC0080E00F90DF91CF91D5
:100460001F910F91FF90EF90DF90CF900895CF9361
:10047000DF931F92CDB7DEB749839E012F5F3F4FB9
:1004800041E050E00E9403020F90DF91CF91089568
:10049000CF92DF92EF92FF920F931F93CF93DF9350
:1004A0001F92CDB7DEB7182F7A01690169830E94C8
:1004B0005E016981882311F081E020C0862F0E94AF
:1004C0008101812F81600E945E018111F5CF86013B
:1004D00081E0E81AF108C8018C199D098E159F0565
:1004E00030F40E949201F80181938F01F4CFEC0C5B
:1004F000FD1C0E949C01F701808380E00F90DF913A
:10050000CF911F910F91FF90EF90DF90CF900895C2
:100510009A0141E050E00C944802FF920F931F9320
:10052000CF93DF931F92CDB7DEB7F42E8901AE01D2
:100530004F5F5F4F0E94880261E070E001C0660F6C
:10054000FA94EAF799819623F801908394E99093BD
:10055000BC000F90DF91CF911F910F91FF900895F4
:10056000FF920F931F93CF93DF9300D0CDB7DEB7E9
:10057000F42EAE014F5F5F4F2A830E9488022A81CA
:100580008823F1F04F2D50E0421B51094F5F5F4F20
:1005900061E070E002C0660F771F2A95E2F76150B4
:1005A0007109042E01C0660F0A94EAF729812623F7
:1005B00030E002C0359527954A95E2F7F80120838F
:1005C00094E99093BC000F900F90DF91CF911F9111
:1005D0000F91FF900895FF920F931F93CF93DF9396
:1005E00000D0CDB7DEB7182F062FF42EAE014F5F27
:1005F0005F4F2A830E94880289812A81222351F039
:1006000021E030E00F2C01C0220F0A94EAF7482FB6
:10061000422B09C021E030E001C0220FFA94EAF732
:10062000422F409548234983602F812F0E94370233
:100630000F900F90DF91CF911F910F91FF90089530
:10064000EF92FF920F931F93CF93DF9300D0CDB71C
:10065000DEB7F82EE62E142FAE014F5F5F4F2A83D0
:100660000E9488022A81882319F1412F50E0421B01
:1006700051094F5F5F4FE1E0F0E002C0EE0FFF1F56
:100680002A95E2F73197042E01C0EE0F0A94EAF79B
:1006900001C0000F4A95EAF74E2F40958981482303
:1006A000E0234E2B49836E2D8F2D0E94370201C00F
:1006B00080E00F900F90DF91CF911F910F91FF90ED
:1006C000EF90089584E98093BC0008950C944B0149
:1006D0000895CF93DF93EC01AC0165E780ED0E94B4
:1006E000880281E09881913709F080E0DF91CF9115
:1006F0000895CF92DF92EF92FF920F931F93CF93C3
:10070000DF931F92CDB7DEB7182F41E86BE680ED7F
:1007100099830E9437024FEF63E280ED0E94370217
:1007200040E06BE180ED0E94370240E06CE180ED3B
:100730000E94370240E866E380ED0E94370242E003
:1007400067E380ED0E943702C12E9981D92E03E024
:1007500010E088E090E00E94D0127C01D6019196D2
:100760009C938E93909788E090E00E94D012F601BF
:1007700091AF80AF88E090E00E94D012F601E05B7C
:10078000FF4F91838083D70117961C92D601D8968C
:100790008D919C91D997DC0117961C920190F08164
:1007A000E02D178201501109B2E0CB0ED11C0115CA
:1007B000110579F60F90DF91CF911F910F91FF9066
:1007C000EF90DF90CF9008952F923F924F925F92DB
:1007D0006F927F928F929F92AF92BF92CF92DF9251
:1007E000EF92FF920F931F93CF93DF93EC019C0145
:1007F0004EE050E06BE380ED0E944802888190E07B
:10080000982F88272981822B9F878E878A8190E065
:10081000982F88272B81822B998B888B8C8190E055
:10082000982F88272D81822B9B8B8A8B888590E03F
:10083000982F88272985822B9FA38EA38A8590E0F5
:10084000982F88272B85822B99A788A78C8590E0E5
:10085000982F88272D85822B9BA78AA7AE0160E061
:100860008CE00E9488028881883419F59E0146E058
:1008700050E063E08CE00E944802898190E0982F6C
:1008800088272881822B9FAF8EAF8B8190E0982F95
:1008900088272A81822BFE01E05CFF4F91838083B1
:1008A0008D8190E0982F88272E81822B329691831C
:1008B00080835E014E01212C312C412C512C84E38C
:1008C000682E83E4782EF50166857785882777FD85
:1008D0008095982F0E943B0D20E030E040E858E3DF
:1008E0000E942F0E6B017C0120E030E040E85FEBBE
:1008F0000E942B0E181604F520E030E040E85FE37C
:10090000C701B6010E949C0C87FF16C0C701B60143
:100910000E94290C20E030E044E353E40E942F0EB3
:100920002BED3FE049E450E40E94A00CF401648BFD
:10093000758B868B978B1FC06A897B89882777FD8B
:100940008095982F0E943B0D20E030E040E858E36E
:100950000E942F0E20E030E0A9010E949C0CF401BF
:1009600087FF05C0448A558A668A778A04C0148A3C
:10097000158A168A178AF50100A111A1F4012489AC
:1009800035894689578960E070E084E393E40E94EA
:10099000370C23E047E00E94AF12F50100AD11AD26
:1009A000F40164A575A586A597A523E047E00E94FC
:1009B000AF12F501E05BFF4F00811181F50166ADDB
:1009C00077AD882777FD8095982F0E943B0D23E017
:1009D00047E00E94AF12FFEF2F1A3F0A82E0A80EF5
:1009E000B11CE4E08E0E911CF3E02F16310409F0E7
:1009F0006ACFDF91CF911F910F91FF90EF90DF9021
:100A0000CF90BF90AF909F908F907F906F905F90AE
:100A10004F903F902F900895E0E8F0E02081226809
:100A2000208320812E7F2083E1E8F0E020812B616C
:100A3000208327E833E13093870020938600259AAE
:100A400026E930E03093890020938800FC01808102
:100A50009181089525982D9AE0E8F0E08081108238
:100A6000E1E8F0E080811082109287001092860009
:100A70000895259A089526E930E030932D012093BA
:100A80002C014FEF51EE64E0415050406040E1F7DF
:100A900000C00000FC01318320832F5F3F4F2835C9
:100AA000F2E03F0751F70895CF92DF92EF92FF9265
:100AB0000F931F93CF93DF93EC0161157105C1F084
:100AC000643B7105E1F0882777FD8095982F0E949F
:100AD0003B0D20E33BEB4BE150E40E942F0E20E066
:100AE00030E046E153E40E94380C6B017C010DC0FC
:100AF000C12CD12C96E1E92E93E4F92E06C0C12C2D
:100B0000D12C81E1E82E84E4F82E08811981B80106
:100B1000882777FD8095982F0E943B0D9B01AC01A3
:100B2000C701B6010E949C0C87FF19C0C701B6011E
:100B30000E94080D6017710794F4109389000093C8
:100B400088002FEF80E792E0215080409040E1F74D
:100B500000C000001983088301501109E7CF6881A4
:100B60007981882777FD8095982F0E943B0D9B0106
:100B7000AC01C701B6010E942B0E18165CF08881EB
:100B80009981DF91CF911F910F91FF90EF90DF90AE
:100B9000CF900895C701B6010E94080D06171707E8
:100BA00074F710938900009388002FEF80E792E09C
:100BB000215080409040E1F700C000001983088375
:100BC0000F5F1F4FE7CF08950895E0EAF0E08081BE
:100BD0008C7F8083E1EAF0E08081827E8083808167
:100BE000826080831092A5001092A4003F9A0E9814
:100BF00047980895479A80E58A95F1F747980895B0
:100C0000CF93DF93EC01069BFECF1092A5001092CC
:100C1000A4000699FECF6091A4007091A5007B838B
:100C20006A8380E090E06C837D838E839F8324E7DA
:100C300030E040E050E00E948D12DA01C9012887BF
:100C400039874A875B87BE01645F7F4F4AE0DF9147
:100C5000CF910C943715EF920F93CF93DF9300D081
:100C60001F92CDB7DEB7FC0129830A83EB82608334
:100C7000718353834283998194838A8185838B8195
:100C80008683DB018E91892B8C93A281B3818E9117
:100C90009581892B8C93A1E0B1E08C9180628C933B
:100CA000A2E0B1E08C918F7D8C93A281B3819C9165
:100CB0008581809589238C930F900F900F90DF9101
:100CC000CF910F91EF900895E1E0F1E08081806293
:100CD0008083E2E0F1E080818F7D80830895E1E010
:100CE000F1E080818F7D8083E2E0F1E080818F7D83
:100CF00080830895DC01ED91FC91119714968C91FD
:100D00009081662319F0982B90830895809589230C
:100D100080830895CF93DF93EC010E947A06EA81E5
:100D2000FB8180819D81892B80838FE193E00197F6
:100D3000F1F700C00000EA81FB8190818D818095F0
:100D4000892380838FE193E00197F1F700C00000D1
:100D5000DF91CF910895CF93DF93EC010E947A0643
:100D6000EA81FB8180819D81892B80838FE193E0E3
:100D70000197F1F700C00000EA81FB8190818D812D
:100D80008095892380838FE193E00197F1F700C07C
:100D90000000DF91CF9108950F931F93CF93DF93BE
:100DA000EC0109EC10E061E0CE010E948A0661E0EE
:100DB000CE010E94AB06015011090115110599F7EA
:100DC0002FEF87EA91E6215080409040E1F700C084
:100DD000000009EC10E060E0CE010E948A0660E0AD
:100DE000CE010E94AB06015011090115110599F7BA
:100DF0002FEF87EA91E6215080409040E1F700C054
:100E00000000DF91CF911F910F91089508950895EB
:100E100084B1857F84B985B1857F85B9EAE0F1E049
:100E2000808188708083EBE0F1E08081857F808322
:100E30000895FC01A9E0B1E08C91869581708083D2
:100E40008C9183FB882780F9818383B1869581709B
:100E5000828383B183FB882780F983830895F89484
:100E6000A89584B7877F84BFE0E6F0E08081886141
:100E700080831082789408951092C50080E1809359
:100E8000C400E1ECF0E0808188618083E2ECF0E076
:100E900080818660808308959091C00095FFFCCF8B
:100EA0008093C60008958091C00087FFFCCF809199
:100EB000C60008958091C00087FF03C08091C600DE
:100EC000F9CF0895CF93DF93EC018991882319F02E
:100ED0000E944C07FACF81E090E0DF91CF91089516
:100EE0000F931F93CF93DF930DE916E0C0E0D0E09E
:100EF0000E9453078D3041F0C336D10529F0219669
:100F0000F80181938F01F4CFC356D94F18828DE930
:100F100096E0DF91CF911F910F9108951092CD002F
:100F200088E08093CC00E9ECF0E0808188618083E8
:100F3000EAECF0E080818660808308959091C8009B
:100F400095FFFCCF8093CE0008958091C80087FF65
:100F5000FCCF8091CE0008958091C80087FD03C02A
:100F60008091CE00F9CF0895CF93DF93EC01899162
:100F7000882319F00E949E07FACF8DE00E949E07F9
:100F80008AE00E949E0781E090E0DF91CF91089572
:100F9000CF92DF92EF92FF920F931F93CF93DF9345
:100FA00081E5E82E82E0F82E90E5C92E92E0D92E58
:100FB0000DE412E0C0E0D0E00E94A507F7018193A4
:100FC0007F01F60191916F019F3411F48B34B1F0E0
:100FD000F80121918F01253461F42081223549F4F3
:100FE000F70133972081223521F49F3411F48235A3
:100FF00029F02196C83EF3E0DF07F1F6CF5ADD4F26
:10100000198281E592E0DF91CF911F910F91FF90BE
:10101000EF90DF90CF9008950F931F93CF93DF93BE
:1010200010E0C0E0D0E000E00E94A507833211F498
:10103000113211F00023F1F0FE01EF5AFD4F8083D1
:10104000DF0111979C91933211F48132C9F0DF01D5
:1010500014972C91253461F411962C91223541F48A
:1010600032972081223521F49F3411F4823541F0EA
:10107000219601E0C83E93E0D90714F4182FD4CF8D
:10108000CF5ADD4F198281E592E0DF91CF911F9118
:101090000F9108950F931F93CF93DF9310E0C0E05B
:1010A000D0E000E08091C8000E945307002359F06F
:1010B000FE01EF5AFD4F808331979081933211F4F6
:1010C000813261F02196813219F4133209F401E082
:1010D000C63E93E0D90714F4182FE4CFCF5ADD4F62
:1010E000198281E592E0DF91CF911F910F910895D0
:1010F000E1E2F1E080818660808310922501109208
:1011000024010895E1E9F0E08081856080832FE388
:1011100035E346E850E460912702709128028091FF
:10112000290290912A020E94A00C0E940D0D70933A
:10113000500260934F02E1E7F0E08081816080839C
:10114000789480914F0290915002019790935002B1
:1011500080934F0208950F931F93CF93DF93CDB7E2
:10116000DEB764970FB6F894DEBF0FBECDBF8C011B
:101170000E945A07B8018E010F5F1F4FC8010E94DD
:10118000FE1467E372E081E592E00E94F11480179B
:10119000910751F0B8010E94F514892B29F067E3FB
:1011A00072E080E090E0F1CF67E372E080E090E0F1
:1011B0000E94F11464960FB6F894DEBF0FBECDBF47
:1011C000DF91CF911F910F910C94F7131F920F9203
:1011D0000FB60F9211240BB60F92CF92DF92EF92BF
:1011E000FF920F931F932F933F934F935F936F93B0
:1011F0007F938F939F93AF93BF93EF93FF93C09091
:101200002702D0902802E0902902F0902A022FE3D2
:1012100035E346E850E4C701B6010E94A00C0E94E5
:101220000D0D80E090E00E94390D2FE335E346E894
:1012300050E40E942F0E9B01AC01C701B6010E9431
:10124000370C20E034E244E75BE40E942F0E20E0FC
:1012500030E040E85AE30E942F0E9B01AC0160E0B1
:101260007FEF8FE797E40E94370C20914F02309177
:101270005002232B29F420E030E040E85FE303C074
:1012800020E030E0A9010E942F0E0E940D0D709306
:1012900095006093940080914F029091500297FFC7
:1012A0005BC0C0924B02D0924C02E0924D02F09291
:1012B0004E02109225011092240105E412E023E071
:1012C0004BEFC701B6010E94AF1280914502809397
:1012D000030280914602809304028091470280932A
:1012E0000502809148028093060280914902809312
:1012F00007022FEF85EA9EE0215080409040E1F701
:1013000000C0000080E092E00E94620780912D0200
:1013100090912E02A0912F02B0913002809327026B
:1013200090932802A0932902B0932A020E945A07A0
:101330002FE335E346E850E46091270270912802DC
:101340008091290290912A020E94A00C0E940D0D0A
:101350007093500260934F0280914F02909150021F
:1013600001979093500280934F02FF91EF91BF91AC
:10137000AF919F918F917F916F915F914F913F912D
:101380002F911F910F91FF90EF90DF90CF900F90D2
:101390000BBE0F900FBE0F901F9018950E942F0745
:1013A0000E9478080E9482080C943C07CF93DF9338
:1013B000CDB7DEB728970FB6F894DEBF0FBECDBF0E
:1013C0000E94CE0900E010E028E7F22E36E0E32E7E
:1013D00089E392E00E9462070E945A072FEF87EA92
:1013E00091E6215080409040E1F700C000000E944B
:1013F00053078F83F886CE0107960E9462070E94EA
:101400005A07EDE3F2E0DE0111968E2D01900D9268
:101410008A95E1F7CE0101960E94AB0860932D02F8
:1014200070932E0280932F02909330022FEF83ED62
:1014300090E3215080409040E1F700C000000F5F32
:101440001F4F0730110521F60E942F0700E010E022
:10145000BFCF20FD09C0FC0123FD05C022FF02C053
:101460007383628351834083089544FD10C046FD19
:1014700010C0DB01FC01AA0FBB1FEE1FFF1F109461
:10148000D1F76A0F7B1F8E1F9F1F31E003C033E02F
:1014900001C034E0660F771F881F991F3150D1F7C4
:1014A000620F711D811D911D08950F931F93CF939E
:1014B000DF938C01C8010E945C15EC0197FD08C008
:1014C0000E94D314892BB1F7B801CE010E94CC152C
:1014D000CE01DF91CF911F910F9108958F929F922E
:1014E000AF92CF92DF92EF92FF920F931F93CF9321
:1014F000DF93EC01A62E4A01022F0E945C15AC017D
:1015000055274B32510521F04D32510551F40068F9
:10151000AA9411F480E067C0CE010E945C1597FD8B
:10152000F9CF102F1D7F302F307301F58033F1F488
:10153000FF24FA94FA0C09F442C0CE010E945C1513
:1015400097FD3DC0382F3F7D383551F41264AA9481
:10155000AA94A9F1CE010E945C1597FF07C02FC085
:1015600006FF02C0126001C01261AF2CC12CD12C49
:10157000760120ED280F283080F014FF04C0BE0152
:101580000E94CC1519C02A3040F016FFF8CF2F7DED
:101590003FEE320F363098F72750412FC701B60182
:1015A0000E94350A6B017C011260AA9459F0CE01A9
:1015B0000E945C1597FFDDCF11FD04C0ABCFC12C9D
:1015C000D12C760117FF08C0F094E094D094C09419
:1015D000C11CD11CE11CF11C212FB701A601C401C3
:1015E0000E94290A81E0DF91CF911F910F91FF9016
:1015F000EF90DF90CF90AF909F908F9008954F9293
:101600005F927F928F929F92AF92BF92CF92DF9222
:10161000EF92FF920F931F93CF93DF931F92CDB75B
:10162000DEB78C012B017A01FC0117821682A12CF6
:10163000F801D380F201D3FC8591D3FE8191382F3C
:101640002F01882309F4EFC090E039830E94D3145E
:101650003981892B21F0C8010E94550AE9CF353222
:1016600041F4F201D3FC3591D3FE31912F01353293
:1016700069F4C80139830E945C15398197FDD1C096
:101680003817B1F2B8010E94CC15CDC03A3241F4FE
:10169000D3FC3591D3FE31912F01BB24B39401C00B
:1016A000B12C712C20ED230F2A3090F4FB2DF26029
:1016B000BF2E672D70E080E090E040E20E94350A86
:1016C000762EF201D3FC3591D3FE31912F01EACF72
:1016D000B1FE03C0711003C0A6C077247A943836D7
:1016E00019F03C3661F014C0F201D3FC3591D3FE01
:1016F00031912F01383661F4FB2DF860BF2E8B2D10
:101700008460B82EF201D3FC3591D3FE31912F01C4
:10171000332309F488C0632F70E08CE091E03983B3
:101720000E94DB143981892B09F47DC0B0FC07C00D
:10173000F701C080D180C70102967C0102C0C12C94
:10174000D12C3E3651F4F8014681578160E070E0BB
:101750002B2DC6010E94290A6BCF3336A1F4B1FCB0
:1017600002C077247394C8010E945C1597FD59C08C
:10177000C114D10429F0F6018083C60101966C01E1
:101780007A9489F74AC0C80139830E94550A398181
:1017900097FD47C03F3669F128F4343631F13936C8
:1017A00079F12BC0333769F03537F9F026C0C11411
:1017B000D10429F0F6018082C60101966C017A9469
:1017C00071F0C8010E945C154C0197FD08C00E9491
:1017D000D314892B61F3B801C4010E94CC15C11444
:1017E000D104D9F0F601108218C0FB2DF062BF2E93
:1017F00007C08B2D8061B82E03C09B2D9064B92E3D
:101800002B2DA601672DC8010E946E0A811105C00B
:10181000F8018381807329F406C0B0FC09CFA3943A
:1018200007CFAA2019F08A2D90E002C08FEF9FEF1A
:101830000F90DF91CF911F910F91FF90EF90DF906C
:10184000CF90BF90AF909F908F907F905F904F9080
:1018500008959F939F774AD10F9000203AF49058B3
:10186000A2EA2AED3FE049E450E413D0BAC150584F
:10187000BB27AA270ED0B5C1A6D130F0ABD120F03E
:1018800031F49F3F11F41EF476C10EF4E095E7FBAE
:101890006CC1E92FB7D180F3BA17620773078407C9
:1018A000950718F071F49EF5CFC10EF4E0950B2E5C
:1018B000BA2FA02D0B01B90190010C01CA01A001A2
:1018C0001124FF27591B99F0593F50F4503E68F1FD
:1018D0001A16F040A22F232F342F4427585FF3CF3E
:1018E000469537952795A795F0405395C9F77EF40F
:1018F0001F16BA0B620B730B840BBAF09150A1F058
:10190000FF0FBB1F661F771F881FC2F70EC0BA0FDD
:10191000621F731F841F48F4879577956795B79565
:10192000F7959E3F08F0B3CF9395880F08F099275D
:10193000EE0F979587950895F4D008F481E0089507
:101940000CD04FC147D140F03ED130F021F45F3F81
:1019500019F00BC1511179C10EC154D198F39923DB
:10196000C9F35523B1F3951B550BBB27AA27621763
:101970007307840738F09F5F5F4F220F331F441FA8
:10198000AA1FA9F333D00E2E3AF0E0E830D09150E0
:101990005040E695001CCAF729D0FE2F27D0660FCD
:1019A000771F881FBB1F261737074807AB07B0E80C
:1019B00009F0BB0B802DBF01FF2793585F4F2AF022
:1019C0009E3F510568F0D1C040C15F3FECF3983EA7
:1019D000DCF3869577956795B795F7959F5FC9F77F
:1019E000880F911D9695879597F90895E1E0660F08
:1019F000771F881FBB1F621773078407BA0720F081
:101A0000621B730B840BBA0BEE1F88F7E0950895E9
:101A100004D06894B11119C10895FCD088F09F5783
:101A200090F0B92F9927B751A0F0D1F0660F771F2A
:101A3000881F991F1AF0BA95C9F712C0B13081F00A
:101A400003D1B1E0089500C1672F782F8827B85FD0
:101A500039F0B93FCCF3869577956795B395D9F76B
:101A60003EF490958095709561957F4F8F4F9F4F75
:101A70000895E89409C097FB3EF490958095709581
:101A800061957F4F8F4F9F4F9923A9F0F92F96E9CA
:101A9000BB279395F695879577956795B795F1113F
:101AA000F8CFFAF4BB0F11F460FF1BC06F5F7F4FDC
:101AB0008F4F9F4F16C0882311F096E911C07723EE
:101AC00021F09EE8872F762F05C0662371F096E8F7
:101AD000862F70E060E02AF09A95660F771F881FC6
:101AE000DAF7880F9695879597F90895DF93CF9346
:101AF0001F930F938B01EC01E4EEF0E03FD071D027
:101B00009801AE018B01EC0160E070E080E89FE39A
:101B1000AEDE0CD19801AE010F911F91CF91DF91F4
:101B2000AAC0990F0008550FAA0BE0E8FEEF1616A1
:101B30001706E807F907C0F012161306E407F507C1
:101B400098F0621B730B840B950B39F40A2661F035
:101B5000232B242B252B21F408950A2609F4A140D8
:101B6000A6958FEF811D811D089597F99F6780E8E5
:101B700070E060E008959FEF80EC0895DF93CF93CD
:101B80001F930F93FF92EF92DF927B018C01689479
:101B900005C0DA2EEF016FD0FE01E894A5912591E2
:101BA000359145915591AEF3EF0173DEFE0197013A
:101BB000A801DA9479F7DF90EF90FF900F911F91D1
:101BC000CF91DF91089500240A941616170618067F
:101BD0000906089500240A94121613061406050631
:101BE0000895092E0394000C11F4882352F0BB0FC2
:101BF00040F4BF2B11F460FF04C06F5F7F4F8F4F25
:101C00009F4F089557FD9058440F551F59F05F3F5F
:101C100071F04795880F97FB991F61F09F3F79F00E
:101C200087950895121613061406551FF2CF469590
:101C3000F1DF08C0161617061806991FF1CF869512
:101C40007105610508940895E894BB2766277727F6
:101C5000CB0197F9089565DF08F48FEF08950BD055
:101C6000C0CFB1DF28F0B6DF18F0952309F07DCFA3
:101C700082CF1124EACFC6DFA0F3959FD1F3950F51
:101C800050E0551F629FF001729FBB27F00DB11D00
:101C9000639FAA27F00DB11DAA1F649F6627B00D90
:101CA000A11D661F829F2227B00DA11D621F739F79
:101CB000B00DA11D621F839FA00D611D221F749F87
:101CC0003327A00D611D231F849F600D211D822FCE
:101CD000762F6A2F11249F5750408AF0E1F0882315
:101CE0004AF0EE0FFF1FBB1F661F771F881F915022
:101CF0005040A9F79E3F510570F037CFA6CF5F3F08
:101D0000ECF3983EDCF3869577956795B795F79554
:101D1000E7959F5FC1F7FE2B880F911D96958795DC
:101D200097F9089511F40EF426CF3EC073DFD0F377
:101D30009923D9F3CEF39F57550B87FF43D0002447
:101D4000A0E640EA900180585695979528F4805C6B
:101D5000660F771F881F20F026173707480730F4D3
:101D6000621B730B840B202931294A2BA6951794EB
:101D70000794202531254A2758F7660F771F881FBB
:101D800020F026173707480730F4620B730B840BDB
:101D9000200D311D411DA09581F7B901842F915867
:101DA000880F9695879508959F3F31F0915020F4C4
:101DB000879577956795B795880F911D9695879527
:101DC00097F9089591505040660F771F881FD2F7FA
:101DD00008952F923F924F925F926F927F928F92CF
:101DE0009F92AF92BF92CF92DF92EF92FF920F93AA
:101DF0001F93CF93DF93CDB7DEB763970FB6F894F9
:101E0000DEBF0FBECDBF7C011B016A01FC01178242
:101E10001682838181FF66C3BE016F5F7F4F4B01D6
:101E2000F7019381F10193FD859193FF81911F014A
:101E3000882309F453C3853239F493FD859193FFC8
:101E400081911F01853239F4B70190E00E949A1503
:101E500056016501E5CF10E0512C20E02032A0F4BE
:101E60008B3269F030F4803259F0833269F42061AA
:101E70002CC08D3239F0803339F4216026C02260C5
:101E8000246023C0286021C027FD27C030ED380F13
:101E90003A3078F426FF06C0FAE01F9F300D112477
:101EA000132F13C06AE0569E300D1124532E20626A
:101EB0000CC08E3221F426FD11C3206406C08C367E
:101EC00011F4206802C0883641F4F10193FD859138
:101ED00093FF81911F018111C1CF9BEB980F93302C
:101EE00018F42061805E06C09BE9980F933008F0DB
:101EF000AAC12F7E26FF16E02F73722E853621F49D
:101F0000F22FF0647F2E08C0863621F4622F6068BD
:101F1000762E02C01111115077FE07C01C3348F411
:101F200044244394410E27E00BC0183030F4212F95
:101F300006C027E04CE3442E03C027E017E0412C05
:101F4000560174E0A70EB11CF60160817181828197
:101F50009381042DA4010E94FB136C01098100FFF1
:101F600002C003FF06C071FC07C072FC08C0612CF0
:101F700008C03DE2632E05C02BE2622E02C090E253
:101F8000692E802F8C7099F1662011F084E001C0D9
:101F900083E0851510F0512C0BC0581A73FC08C053
:101FA000B70180E290E00E949A155A94C9F7F3CFE6
:101FB000662029F0B701862D90E00E949A1503FD56
:101FC00003C00BE111E002C007E111E0F72DF07151
:101FD0007F2EF8018491882309F476C27110805213
:101FE000B70190E00E949A150F5F1F4FF2CF77FE66
:101FF0000FC04C0C04FF04C08A81813309F44A9459
:10200000141474F5F8E0F41578F588E0482E2CC027
:1020100076FC2AC0812F90E08C159D059CF06CEF1A
:10202000C6166FEFD60674F0772D7068772E0AC04B
:10203000E2E0F0E0EC0FFD1FE10FF11D8081803345
:1020400019F411501111F4CF77FE0EC044244394BB
:10205000410E812F90E0C816D9062CF41C1904C03B
:102060004424439401C010E077FE07C01C141D04F3
:102070003CF496012F5F3F4F05C025E030E002C0E1
:1020800021E030E0662011F02F5F3F4F112331F047
:10209000412F50E04F5F5F4F240F351F452D50E01B
:1020A0002417350714F4521A01C0512C872D89705A
:1020B00049F4552039F0B70180E290E00E949A156A
:1020C0005A94F7CF662029F0B701862D90E00E9440
:1020D0009A1573FC09C0552039F0B70180E390E0F0
:1020E0000E949A155A94F7CF77FE5FC09C2D8D2DD4
:1020F000D7FE02C090E080E0692E782E40E050E0EC
:10210000C601841991099D878C8796012619370984
:10211000280D391D812F90E0EE27FF27E81BF90BD2
:10212000FF87EE87FFEF6F167F0669F4B7018EE237
:1021300090E02B8B3A8B488B598B0E949A155989CA
:1021400048893A892B89C614D70454F06C857D855B
:10215000661577052CF4F901E40FF51F818101C0A4
:1021600080E371E0671A71084F5F5F4FEE85FF856E
:102170006E167F066CF0B70190E02B8B3A8B488B84
:10218000598B0E949A152B893A8948895989CACF57
:102190006C147D0439F49A81963318F4953311F454
:1021A00004FF81E3B70190E04BC08A81813309F0DD
:1021B0000F7EB70190E00E949A15111105C074FEC0
:1021C00018C085E490E017C0B7018EE290E00E944D
:1021D0009A1582E066246394680EF401E80FF11DFD
:1021E0008081B70190E00E949A15115041F3862D2D
:1021F000F1CF85E690E0B7010E949A15D7FC05C0A3
:10220000C114D10439F404FF05C0D194C194D1089C
:102210008DE201C08BE2B70190E00E949A1580E345
:102220006AE0C616D1042CF08F5FFAE0CF1AD1080D
:10223000F7CFB70190E00E949A15B701C601C0968A
:102240000E949A1541C1833631F0833779F0833586
:1022500009F058C021C0560172E0A70EB11CF6016A
:102260008081898301E010E0640114C05601F2E02E
:10227000AF0EB11CF601C080D18026FF03C0612FD4
:1022800070E002C06FEF7FEFC6012B8B0E94051537
:102290008C012B892F7715C05601F2E0AF0EB11CCF
:1022A000F601C080D18026FF03C0612F70E002C01C
:1022B0006FEF7FEFC6012B8B0E94E6148C012B89F8
:1022C0002068722E23FD1AC0852D90E0081719078B
:1022D000A8F4B70180E290E00E949A155A94F4CFD6
:1022E000F60177FC859177FE81916F01B70190E04F
:1022F0000E949A1551105A940150110901151105A7
:1023000079F7E2C0843611F0893651F5560127FF7E
:1023100009C0F4E0AF0EB11CF601608171818281C9
:1023200093810AC0F2E0AF0EB11CF60160817181A9
:10233000882777FD8095982F022F0F7697FF08C08A
:1023400090958095709561957F4F8F4F9F4F006856
:102350002AE030E0A4010E94E515C82EC8183EC04E
:10236000022F853721F40F7E2AE030E01DC0097F5F
:102370008F3691F018F4883559F0B0C0803719F0D5
:10238000883711F0ABC0006104FF09C0046007C0CA
:1023900024FF08C0066006C028E030E005C020E148
:1023A00030E002C020E132E0560107FF09C0F4E04E
:1023B000AF0EB11CF601608171818281938108C0EA
:1023C000F2E0AF0EB11CF6016081718180E090E017
:1023D000A4010E94E515C82EC8180F7706FF0BC090
:1023E000202F2E7FC11650F404FF0AC002FD08C042
:1023F000202F2E7E05C0DC2C202F03C0DC2C01C03A
:10240000D12E24FF0DC0FE01EC0DF11D8081803323
:1024100011F4297E09C022FF06C0D394D39404C0CE
:10242000822F867809F0D39423FD13C020FF06C0C5
:102430001C2DD51418F4150D1D19D52CD51468F4C0
:10244000B70180E290E02B8B0E949A15D3942B89E0
:10245000F5CFD51410F45D1801C0512C24FF12C023
:10246000B70180E390E02B8B0E949A152B8922FF05
:1024700017C021FF03C088E590E002C088E790E024
:10248000B7010CC0822F867859F021FD02C080E28E
:1024900001C08BE227FD8DE2B70190E00E949A1502
:1024A000C11638F4B70180E390E00E949A151150EC
:1024B000F7CFCA94F401EC0DF11D8081B70190E0D3
:1024C0000E949A15C110F5CF552009F4C2CCB7016E
:1024D00080E290E00E949A155A94F6CFF701868127
:1024E000978102C08FEF9FEF63960FB6F894DEBF1F
:1024F0000FBECDBFDF91CF911F910F91FF90EF9055
:10250000DF90CF90BF90AF909F908F907F906F9013
:102510005F904F903F902F900895A1E21A2EAA1B32
:10252000BB1BFD010DC0AA1FBB1FEE1FFF1FA21783
:10253000B307E407F50720F0A21BB30BE40BF50B80
:10254000661F771F881F991F1A9469F76095709509
:10255000809590959B01AC01BD01CF010895EF924C
:102560000F931F93CF93DF93E80147FF02C034E13D
:1025700001C034E0E42FFF27E7FDF095F7FF03C02B
:10258000F195E195F109E32E022F2E2FAE010E9465
:102590004316CE01DF91CF911F910F91EF900895D7
:1025A000CF93DF938230910510F482E090E0E091C8
:1025B000990AF0919A0A20E030E0A0E0B0E030976C
:1025C00039F14081518148175907B8F04817590728
:1025D00071F482819381109729F013969C938E93C6
:1025E00012972CC090939A0A8093990A27C02115BC
:1025F000310531F04217530718F0A901DB0101C082
:10260000EF019A01BD01DF010280F381E02DD7CFF8
:1026100021153105F9F0281B390B2430310580F4E0
:102620008A819B816115710521F0FB01938382836F
:1026300004C090939A0A8093990AFE01329644C08E
:10264000FE01E20FF31F81939193225031093983E8
:1026500028833AC02091970A3091980A232B41F49D
:1026600020913302309134023093980A2093970AD4
:1026700020913102309132022115310541F42DB7FC
:102680003EB74091350250913602241B350BE09144
:10269000970AF091980AE217F307A0F42E1B3F0B5C
:1026A0002817390778F0AC014E5F5F4F24173507C4
:1026B00048F04E0F5F1F5093980A4093970A8193FA
:1026C000919302C0E0E0F0E0CF01DF91CF91089557
:1026D000CF93DF93009709F487C0FC0132971382F0
:1026E0001282C091990AD0919A0A209781F4208190
:1026F0003181280F391F8091970A9091980A82178B
:10270000930779F5F093980AE093970A6DC0DE017C
:1027100020E030E0AE17BF0750F412964D915C9167
:1027200013979D014115510509F1DA01F3CFB383E8
:10273000A28340815181840F951F8A179B0771F4F2
:102740008D919C911197840F951F029691838083A0
:1027500012968D919C911397938382832115310555
:1027600029F4F0939A0AE093990A3EC0D90113968E
:10277000FC93EE9312974D915D91A40FB51FEA174C
:10278000FB0779F480819181840F951F0296D9010E
:1027900011969C938E938281938113969C938E9332
:1027A0001297E0E0F0E08A819B81009719F0FE012A
:1027B000EC01F9CFCE01029628813981820F931F57
:1027C0002091970A3091980A2817390769F43097B1
:1027D00029F410929A0A1092990A02C01382128266
:1027E000D093980AC093970ADF91CF9108956627F6
:1027F00077270C94C117283008F027E03327DA0137
:10280000990F311D87FD916000966105710539F4BE
:1028100032602E5F3D9330E32A95E1F708959F3FA4
:1028200030F080387105610509F03C5F3C5F3D93F5
:10283000913008F08068911DDF93CF931F930F9321
:10284000FF92EF92192F987F9695E92F969596957E
:10285000E90FFF27E758FE4F99273327EE24FF247F
:10286000A701E70105900894079428F4360FE71EA6
:10287000F81E491F511D660F771F881F991F069468
:10288000A1F70590079428F4E70EF81E491F561F7C
:10289000C11D770F881F991F661F0694A1F7059029
:1028A000079428F4F80E491F561FC71FD11D880F23
:1028B000991F661F771F0694A1F70590079420F4CF
:1028C000490F561FC71FD81F990F661F771F881FF4
:1028D0000694A9F784911095177041F0D695C79585
:1028E00057954795F794E7941A95C1F7EFE1F1E012
:1028F00068941590159135916591959105907FE2B9
:102900007395E118F10A430B560BC90BD009C0F7B8
:10291000E10CF11E431F561FC91FD01D7EF47033FA
:1029200011F48A95E6CFE894015030F0080F0AF4CC
:102930000027021708F4202F2395022F7A3328F05E
:1029400079E37D932A95E9F710C07D932A9589F65E
:10295000069497956795379517951794E118F10A9E
:10296000430B560BC90BD00998F023957E917395B4
:102970007A3308F070E37C932013B8F77E9170618E
:102980007D9330F0839571E37D9370E32A95E1F7B1
:102990001124EF90FF900F911F91CF91DF91992714
:1029A00087FD9095089591115DC4803219F089508A
:1029B0008550D0F70895FC010590061621F00020FF
:1029C000D9F7C00108953197CF010895FC01059012
:1029D000615070400110D8F7809590958E0F9F1F21
:1029E000089545E95AE00C941015FB01DC018D9126
:1029F000019080190110D9F3990B0895FB01DC01B6
:102A000001900D920020E1F70895FC0161507040A3
:102A100001900110D8F7809590958E0F9F1F089513
:102A2000FA01A191B081009719F41097E1F0CD015E
:102A3000DC01CD010D90002011F4C00113C0FB0199
:102A40002191222319F02015D9F7F3CFFB01219111
:102A5000201519F41E92119606C02223C1F70D907D
:102A60000020A1F7D001FA01A193B0830895BB27FC
:102A70004A3031F4992322F4BDE2909581959F4F1D
:102A80000C944315BB27FB015527AA27880F991FD4
:102A9000AA1FA41710F0A41B83955051B9F7A05D8D
:102AA000AA3308F0A95DA193009779F7B111B1930A
:102AB0001192CB010C944D19CF93DF93EC012B8134
:102AC00020FF33C026FF0AC02F7B2B838E819F817E
:102AD00001969F838E838A8190E029C022FF0FC0D8
:102AE000E881F9818081992787FD9095009719F4F5
:102AF00020622B831AC03196F983E8830EC0EA85E1
:102B0000FB85099597FF09C02B81019611F480E19F
:102B100001C080E2822B8B8308C02E813F812F5F12
:102B20003F4F3F832E83992702C08FEF9FEFDF91A6
:102B3000CF9108950F931F93CF93DF93182F092FF1
:102B4000EB018B8181FD03C08FEF9FEF20C082FFDF
:102B500010C04E815F812C813D81421753077CF468
:102B6000E881F9819F012F5F3F4F398328831083CC
:102B700006C0E885F985812F0995892B29F72E81D3
:102B80003F812F5F3F4F3F832E83812F902FDF9117
:102B9000CF911F910F910895FB01238120FF12C057
:102BA00026FD10C08F3F3FEF930761F082832F7D9A
:102BB000206423832681378121503109378326837E
:102BC000992708958FEF9FEF0895FA01AA272830DB
:102BD00051F1203181F1E8946F936E7F6E5F7F4FEA
:102BE0008F4F9F4FAF4FB1E03ED0B4E03CD0670F66
:102BF000781F891F9A1FA11D680F791F8A1F911DB9
:102C0000A11D6A0F711D811D911DA11D20D009F408
:102C100068943F912AE0269F11243019305D31934A
:102C2000DEF6CF010895462F4770405D4193B3E033
:102C30000FD0C9F7F6CF462F4F70405D4A3318F0DA
:102C4000495D31FD4052419302D0A9F7EACFB4E08B
:102C5000A6959795879577956795BA95C9F7009743
:102C60006105710508959B01AC010A2E06945795E4
:102C7000479537952795BA95C9F7620F731F841F3B
:102C8000951FA01D08956F927F929F92AF92BF9261
:102C9000CF92DF92EF92FF920F931F93CF93DF9328
:102CA000CDB7DEB729970FB6F894DEBF0FBECDBF04
:102CB0006A01B22E102F0C3320F4FF24F394F00E8F
:102CC00002C04CE3F42E0F2D27E0AE014F5F5F4FA3
:102CD0000E94FB137981272F2970213031F0E1FC0C
:102CE00006C0E0FC06C060E005C06DE203C06BE218
:102CF00001C060E2AE2DA07173FF36C0662311F0F3
:102D000084E001C083E08B1510F4B81A01C0B12C27
:102D1000A1110BC0F6018B2D90E2882319F091933D
:102D20008150FBCFCB0CD11CB12C662331F0F601C6
:102D3000608396012F5F3F4F6901C6010396E2FE53
:102D400005C02EE4F601208331E404C02EE6F6012E
:102D5000208331E631832283FC012B2D30E22223B4
:102D6000F1F131932150FBCF72FF40C0662311F087
:102D700084E001C083E08B1510F4B81A01C0B12CB7
:102D8000A1110BC0F6018B2D90E2882319F09193CD
:102D90008150FBCFCB0CD11CB12C662331F0F60156
:102DA000608396012F5F3F4F6901C6010396E2FEE3
:102DB00007C029E4F60120832EE4218326E406C01F
:102DC00029E6F60120832EE6218326E62283FC01F4
:102DD0002B2D30E2222319F031932150FBCFFC013F
:102DE000EB0DF11D10828EEF9FEFB7C0B1E06111C6
:102DF00001C0B0E04B2F50E01816190624F49C01D6
:102E00002F5F3F4F02C021E030E0240F351F112318
:102E100029F0412F50E04F5F5F4F02C040E050E08B
:102E2000420F531F2B2D30E04217530714F4B41AEE
:102E300001C0B12C2E2D287159F4F6012B2D30E252
:102E4000222319F031932150FBCFCB0CD11CB12C94
:102E5000BB2331F0F601608396012F5F3F4F69017C
:102E6000A1110BC0F6012B2D30E3222319F0319371
:102E70002150FBCFCB0CD11CB12CF80E0A81372F7F
:102E80003071A32E74FF03C0013309F4FA941F14A8
:102E90002CF42F2D293018F028E001C021E0682FF4
:102EA000392F97FF02C060E030E0462F532F612C8E
:102EB000712C3EE2932EBC01621B71099B01DC0167
:102EC000A41BB50BE1E0F0E0EC0FFD1FAE0FBF1F40
:102ED000E12EF12CF194E194F1084F3FFFEF5F07F1
:102EE00031F4F6019082B6016F5F7F4F6B0184175A
:102EF00095074CF02417350734F4BD01660D771D96
:102F0000FB01118101C010E341505109FFEF6F1A1D
:102F10007F0AB6016F5F7F4F4E155F0524F0F60103
:102F200010836B01DACF4817590739F4063320F4C0
:102F3000053319F4A11001C011E3F6011083FB0160
:102F40008B2D90E2882319F091938150FBCFFB01E8
:102F5000EB0DF11D108280E090E029960FB6F894F9
:102F6000DEBF0FBECDBFDF91CF911F910F91FF90BC
:102F7000EF90DF90CF90BF90AF909F907F906F9039
:102F800008958F929F92AF92BF92CF92DF92EF926D
:102F9000FF920F931F93CF93DF938B016115710500
:102FA00021F0DB018C9311969C93EC015E01BFEF45
:102FB000AB1ABB0A7501C8808C2D90E00E94D31417
:102FC000892B11F0E501F2CFEDE2CE1208C07E01AF
:102FD000F2E0EF0EF11CC980DD24D39409C02BE28E
:102FE000C21205C07E0142E0E40EF11CC980D12C62
:102FF000E701219743E050E061E272E0CE010E94D8
:103000003519892BC1F4239645E050E06CE172E05C
:10301000CE010E943519892B09F425960115110559
:1030200019F0D801CD93DC93D11006C160E070E0B7
:1030300080E89FE70AC143E050E069E172E0CE0119
:103040000E943519892B59F40115110509F4F9C0AD
:10305000B2E0EB0EF11CF801F182E082F2C0F70160
:1030600060E070E0CB01C0E0D0E07F01A0EDAA2ECF
:10307000AC0C29E02A1530F14D2D4260B42E2D2DD7
:103080002870D2FE04C0211125C0219623C0211131
:103090002197A5E0B0E09B01AC010E945D19660F8D
:1030A000771F881F991F6A0D711D811D911D683939
:1030B000A9E97A078A07A9E19A0760F0BD2DB660F1
:1030C000BB2E08C02EEFA2120AC0D3FC50C04D2D5B
:1030D0004860B42E3196D701CC90DB2CC6CF2C2D76
:1030E0002F7D253409F043C0A081AD3241F4BD2DC0
:1030F000B061DB2E7F0122E0E20EF11C0CC07F01EB
:10310000AB3231F04FEFE41AF40A21E030E006C0B0
:10311000A2E0EA0EF11CA18122E030E0A053AA3027
:1031200018F0E21AF30A23C0F70120E030E020385B
:10313000BCE03B075CF4A901440F551F440F551F29
:10314000240F351F220F331F2A0F311DAF014F5F90
:103150005F4F7A01A081A053AA3010F4FA01E7CFA3
:10316000D4FE03C0319521953109C20FD31FD1FE82
:1031700009C00115110531F0E1E0EE1AF108D8019E
:10318000ED92FC920E94390D2D2D2370233019F001
:103190004B015C0106C04B015C01B7FAB094B7F873
:1031A000B09420E030E0A901C501B4010E949C0C5C
:1031B000882309F43EC0D7FF06C0D195C195D10937
:1031C00008E312E002C000E512E06801B8E1CB1AA2
:1031D000D10890E2E92EF12CCE15DF0574F0F8014C
:1031E0002591359145915491C501B4010E942F0E4E
:1031F0004B015C01CE19DF09EFCF04501109F594A2
:10320000E7940C151D0541F78A2D880F8B2D881F1B
:103210008F3F49F020E030E0A901C501B4010E94D0
:103220009C0C811106C082E290E090939C0A8093EE
:103230009B0AC501B40109C060E070E080E89FEF1F
:1032400004C060E070E080EC9FE7DF91CF911F91B8
:103250000F91FF90EF90DF90CF90BF90AF909F9035
:103260008F900895992788270895FB01DC0141502C
:10327000504088F08D9181341CF08B350CF4805EC9
:10328000659161341CF06B350CF4605E861B611136
:1032900071F3990B0895881BFCCFDC01FC01672FAB
:1032A00071917723E1F7329704C07C916D9370831D
:1032B0006291AE17BF07C8F308950E946819A59FD1
:1032C000900DB49F900DA49F800D911D1124089521
:1032D000A29FB001B39FC001A39F700D811D112457
:1032E000911DB29F700D811D1124911D0895F894B8
:0232F000FFCF0E
:1032F20023663A302E303030613A30302E30307022
:103302003A30302E3030643A30302E3030783A3025
:10331200302E30302A000100004040FFFF000080C4
:103322004000009D0A2000200023672A0067617484
:04333200653A0000F8
:00000001FF
